{
  "_format": "hh-sol-artifact-1",
  "contractName": "FactoryNFT",
  "sourceName": "contracts/factoryNFT.sol",
  "abi": [
    {
      "inputs": [],
      "stateMutability": "nonpayable",
      "type": "constructor"
    },
    {
      "anonymous": false,
      "inputs": [
        {
          "indexed": true,
          "internalType": "address",
          "name": "owner",
          "type": "address"
        },
        {
          "indexed": true,
          "internalType": "address",
          "name": "approved",
          "type": "address"
        },
        {
          "indexed": true,
          "internalType": "uint256",
          "name": "tokenId",
          "type": "uint256"
        }
      ],
      "name": "Approval",
      "type": "event"
    },
    {
      "anonymous": false,
      "inputs": [
        {
          "indexed": true,
          "internalType": "address",
          "name": "owner",
          "type": "address"
        },
        {
          "indexed": true,
          "internalType": "address",
          "name": "operator",
          "type": "address"
        },
        {
          "indexed": false,
          "internalType": "bool",
          "name": "approved",
          "type": "bool"
        }
      ],
      "name": "ApprovalForAll",
      "type": "event"
    },
    {
      "anonymous": false,
      "inputs": [
        {
          "indexed": true,
          "internalType": "address",
          "name": "from",
          "type": "address"
        },
        {
          "indexed": true,
          "internalType": "address",
          "name": "to",
          "type": "address"
        },
        {
          "indexed": true,
          "internalType": "uint256",
          "name": "tokenId",
          "type": "uint256"
        }
      ],
      "name": "Transfer",
      "type": "event"
    },
    {
      "inputs": [
        {
          "internalType": "address",
          "name": "to",
          "type": "address"
        },
        {
          "internalType": "uint256",
          "name": "tokenId",
          "type": "uint256"
        }
      ],
      "name": "approve",
      "outputs": [],
      "stateMutability": "nonpayable",
      "type": "function"
    },
    {
      "inputs": [
        {
          "internalType": "address",
          "name": "owner",
          "type": "address"
        }
      ],
      "name": "balanceOf",
      "outputs": [
        {
          "internalType": "uint256",
          "name": "",
          "type": "uint256"
        }
      ],
      "stateMutability": "view",
      "type": "function"
    },
    {
      "inputs": [
        {
          "internalType": "string",
          "name": "tokenURI",
          "type": "string"
        }
      ],
      "name": "createToken",
      "outputs": [
        {
          "internalType": "uint256",
          "name": "",
          "type": "uint256"
        }
      ],
      "stateMutability": "nonpayable",
      "type": "function"
    },
    {
      "inputs": [
        {
          "internalType": "uint256",
          "name": "tokenId",
          "type": "uint256"
        }
      ],
      "name": "getApproved",
      "outputs": [
        {
          "internalType": "address",
          "name": "",
          "type": "address"
        }
      ],
      "stateMutability": "view",
      "type": "function"
    },
    {
      "inputs": [
        {
          "internalType": "address",
          "name": "owner",
          "type": "address"
        },
        {
          "internalType": "address",
          "name": "operator",
          "type": "address"
        }
      ],
      "name": "isApprovedForAll",
      "outputs": [
        {
          "internalType": "bool",
          "name": "",
          "type": "bool"
        }
      ],
      "stateMutability": "view",
      "type": "function"
    },
    {
      "inputs": [],
      "name": "name",
      "outputs": [
        {
          "internalType": "string",
          "name": "",
          "type": "string"
        }
      ],
      "stateMutability": "view",
      "type": "function"
    },
    {
      "inputs": [
        {
          "internalType": "uint256",
          "name": "tokenId",
          "type": "uint256"
        }
      ],
      "name": "ownerOf",
      "outputs": [
        {
          "internalType": "address",
          "name": "",
          "type": "address"
        }
      ],
      "stateMutability": "view",
      "type": "function"
    },
    {
      "inputs": [
        {
          "internalType": "address",
          "name": "from",
          "type": "address"
        },
        {
          "internalType": "address",
          "name": "to",
          "type": "address"
        },
        {
          "internalType": "uint256",
          "name": "tokenId",
          "type": "uint256"
        }
      ],
      "name": "safeTransferFrom",
      "outputs": [],
      "stateMutability": "nonpayable",
      "type": "function"
    },
    {
      "inputs": [
        {
          "internalType": "address",
          "name": "from",
          "type": "address"
        },
        {
          "internalType": "address",
          "name": "to",
          "type": "address"
        },
        {
          "internalType": "uint256",
          "name": "tokenId",
          "type": "uint256"
        },
        {
          "internalType": "bytes",
          "name": "_data",
          "type": "bytes"
        }
      ],
      "name": "safeTransferFrom",
      "outputs": [],
      "stateMutability": "nonpayable",
      "type": "function"
    },
    {
      "inputs": [
        {
          "internalType": "address",
          "name": "operator",
          "type": "address"
        },
        {
          "internalType": "bool",
          "name": "approved",
          "type": "bool"
        }
      ],
      "name": "setApprovalForAll",
      "outputs": [],
      "stateMutability": "nonpayable",
      "type": "function"
    },
    {
      "inputs": [
        {
          "internalType": "bytes4",
          "name": "interfaceId",
          "type": "bytes4"
        }
      ],
      "name": "supportsInterface",
      "outputs": [
        {
          "internalType": "bool",
          "name": "",
          "type": "bool"
        }
      ],
      "stateMutability": "view",
      "type": "function"
    },
    {
      "inputs": [],
      "name": "symbol",
      "outputs": [
        {
          "internalType": "string",
          "name": "",
          "type": "string"
        }
      ],
      "stateMutability": "view",
      "type": "function"
    },
    {
      "inputs": [
        {
          "internalType": "uint256",
          "name": "tokenId",
          "type": "uint256"
        }
      ],
      "name": "tokenURI",
      "outputs": [
        {
          "internalType": "string",
          "name": "",
          "type": "string"
        }
      ],
      "stateMutability": "view",
      "type": "function"
    },
    {
      "inputs": [
        {
          "internalType": "address",
          "name": "from",
          "type": "address"
        },
        {
          "internalType": "address",
          "name": "to",
          "type": "address"
        },
        {
          "internalType": "uint256",
          "name": "tokenId",
          "type": "uint256"
        }
      ],
      "name": "transferFrom",
      "outputs": [],
      "stateMutability": "nonpayable",
      "type": "function"
    }
  ],
  "bytecode": "0x60806040523480156200001157600080fd5b506040518060400160405280600b81526020017f466163746f7279204e46540000000000000000000000000000000000000000008152506040518060400160405280600381526020017f46544e0000000000000000000000000000000000000000000000000000000000815250816000908051906020019062000096929190620000b8565b508060019080519060200190620000af929190620000b8565b505050620001cd565b828054620000c69062000168565b90600052602060002090601f016020900481019282620000ea576000855562000136565b82601f106200010557805160ff191683800117855562000136565b8280016001018555821562000136579182015b828111156200013557825182559160200191906001019062000118565b5b50905062000145919062000149565b5090565b5b80821115620001645760008160009055506001016200014a565b5090565b600060028204905060018216806200018157607f821691505b602082108114156200019857620001976200019e565b5b50919050565b7f4e487b7100000000000000000000000000000000000000000000000000000000600052602260045260246000fd5b612a7180620001dd6000396000f3fe608060405234801561001057600080fd5b50600436106100ea5760003560e01c80636352211e1161008c578063a22cb46511610066578063a22cb4651461026f578063b88d4fde1461028b578063c87b56dd146102a7578063e985e9c5146102d7576100ea565b80636352211e146101f157806370a082311461022157806395d89b4114610251576100ea565b8063095ea7b3116100c8578063095ea7b31461016d57806323b872dd1461018957806342842e0e146101a557806345576f94146101c1576100ea565b806301ffc9a7146100ef57806306fdde031461011f578063081812fc1461013d575b600080fd5b61010960048036038101906101049190611bc4565b610307565b60405161011691906123c9565b60405180910390f35b6101276103e9565b60405161013491906123e4565b60405180910390f35b61015760048036038101906101529190611c57565b61047b565b6040516101649190612362565b60405180910390f35b61018760048036038101906101829190611b88565b610500565b005b6101a3600480360381019061019e9190611a82565b610618565b005b6101bf60048036038101906101ba9190611a82565b610678565b005b6101db60048036038101906101d69190611c16565b610698565b6040516101e89190612606565b60405180910390f35b61020b60048036038101906102069190611c57565b6106cf565b6040516102189190612362565b60405180910390f35b61023b60048036038101906102369190611a1d565b610781565b6040516102489190612606565b60405180910390f35b610259610839565b60405161026691906123e4565b60405180910390f35b61028960048036038101906102849190611b4c565b6108cb565b005b6102a560048036038101906102a09190611ad1565b610a4c565b005b6102c160048036038101906102bc9190611c57565b610aae565b6040516102ce91906123e4565b60405180910390f35b6102f160048036038101906102ec9190611a46565b610c00565b6040516102fe91906123c9565b60405180910390f35b60007f80ac58cd000000000000000000000000000000000000000000000000000000007bffffffffffffffffffffffffffffffffffffffffffffffffffffffff1916827bffffffffffffffffffffffffffffffffffffffffffffffffffffffff191614806103d257507f5b5e139f000000000000000000000000000000000000000000000000000000007bffffffffffffffffffffffffffffffffffffffffffffffffffffffff1916827bffffffffffffffffffffffffffffffffffffffffffffffffffffffff1916145b806103e257506103e182610c94565b5b9050919050565b6060600080546103f890612866565b80601f016020809104026020016040519081016040528092919081815260200182805461042490612866565b80156104715780601f1061044657610100808354040283529160200191610471565b820191906000526020600020905b81548152906001019060200180831161045457829003601f168201915b5050505050905090565b600061048682610cfe565b6104c5576040517f08c379a00000000000000000000000000000000000000000000000000000000081526004016104bc90612566565b60405180910390fd5b6004600083815260200190815260200160002060009054906101000a900473ffffffffffffffffffffffffffffffffffffffff169050919050565b600061050b826106cf565b90508073ffffffffffffffffffffffffffffffffffffffff168373ffffffffffffffffffffffffffffffffffffffff16141561057c576040517f08c379a0000000000000000000000000000000000000000000000000000000008152600401610573906125c6565b60405180910390fd5b8073ffffffffffffffffffffffffffffffffffffffff1661059b610d6a565b73ffffffffffffffffffffffffffffffffffffffff1614806105ca57506105c9816105c4610d6a565b610c00565b5b610609576040517f08c379a0000000000000000000000000000000000000000000000000000000008152600401610600906124a6565b60405180910390fd5b6106138383610d72565b505050565b610629610623610d6a565b82610e2b565b610668576040517f08c379a000000000000000000000000000000000000000000000000000000000815260040161065f906125e6565b60405180910390fd5b610673838383610f09565b505050565b61069383838360405180602001604052806000815250610a4c565b505050565b60006106a46007611165565b60006106b0600761117b565b90506106bc3382611189565b6106c68184611357565b80915050919050565b6000806002600084815260200190815260200160002060009054906101000a900473ffffffffffffffffffffffffffffffffffffffff169050600073ffffffffffffffffffffffffffffffffffffffff168173ffffffffffffffffffffffffffffffffffffffff161415610778576040517f08c379a000000000000000000000000000000000000000000000000000000000815260040161076f906124e6565b60405180910390fd5b80915050919050565b60008073ffffffffffffffffffffffffffffffffffffffff168273ffffffffffffffffffffffffffffffffffffffff1614156107f2576040517f08c379a00000000000000000000000000000000000000000000000000000000081526004016107e9906124c6565b60405180910390fd5b600360008373ffffffffffffffffffffffffffffffffffffffff1673ffffffffffffffffffffffffffffffffffffffff168152602001908152602001600020549050919050565b60606001805461084890612866565b80601f016020809104026020016040519081016040528092919081815260200182805461087490612866565b80156108c15780601f10610896576101008083540402835291602001916108c1565b820191906000526020600020905b8154815290600101906020018083116108a457829003601f168201915b5050505050905090565b6108d3610d6a565b73ffffffffffffffffffffffffffffffffffffffff168273ffffffffffffffffffffffffffffffffffffffff161415610941576040517f08c379a000000000000000000000000000000000000000000000000000000000815260040161093890612466565b60405180910390fd5b806005600061094e610d6a565b73ffffffffffffffffffffffffffffffffffffffff1673ffffffffffffffffffffffffffffffffffffffff16815260200190815260200160002060008473ffffffffffffffffffffffffffffffffffffffff1673ffffffffffffffffffffffffffffffffffffffff16815260200190815260200160002060006101000a81548160ff0219169083151502179055508173ffffffffffffffffffffffffffffffffffffffff166109fb610d6a565b73ffffffffffffffffffffffffffffffffffffffff167f17307eab39ab6107e8899845ad3d59bd9653f200f220920489ca2b5937696c3183604051610a4091906123c9565b60405180910390a35050565b610a5d610a57610d6a565b83610e2b565b610a9c576040517f08c379a0000000000000000000000000000000000000000000000000000000008152600401610a93906125e6565b60405180910390fd5b610aa8848484846113cb565b50505050565b6060610ab982610cfe565b610af8576040517f08c379a0000000000000000000000000000000000000000000000000000000008152600401610aef90612546565b60405180910390fd5b6000600660008481526020019081526020016000208054610b1890612866565b80601f0160208091040260200160405190810160405280929190818152602001828054610b4490612866565b8015610b915780601f10610b6657610100808354040283529160200191610b91565b820191906000526020600020905b815481529060010190602001808311610b7457829003601f168201915b505050505090506000610ba2611427565b9050600081511415610bb8578192505050610bfb565b600082511115610bed578082604051602001610bd592919061233e565b60405160208183030381529060405292505050610bfb565b610bf68461143e565b925050505b919050565b6000600560008473ffffffffffffffffffffffffffffffffffffffff1673ffffffffffffffffffffffffffffffffffffffff16815260200190815260200160002060008373ffffffffffffffffffffffffffffffffffffffff1673ffffffffffffffffffffffffffffffffffffffff16815260200190815260200160002060009054906101000a900460ff16905092915050565b60007f01ffc9a7000000000000000000000000000000000000000000000000000000007bffffffffffffffffffffffffffffffffffffffffffffffffffffffff1916827bffffffffffffffffffffffffffffffffffffffffffffffffffffffff1916149050919050565b60008073ffffffffffffffffffffffffffffffffffffffff166002600084815260200190815260200160002060009054906101000a900473ffffffffffffffffffffffffffffffffffffffff1673ffffffffffffffffffffffffffffffffffffffff1614159050919050565b600033905090565b816004600083815260200190815260200160002060006101000a81548173ffffffffffffffffffffffffffffffffffffffff021916908373ffffffffffffffffffffffffffffffffffffffff160217905550808273ffffffffffffffffffffffffffffffffffffffff16610de5836106cf565b73ffffffffffffffffffffffffffffffffffffffff167f8c5be1e5ebec7d5bd14f71427d1e84f3dd0314c0f7b2291e5b200ac8c7c3b92560405160405180910390a45050565b6000610e3682610cfe565b610e75576040517f08c379a0000000000000000000000000000000000000000000000000000000008152600401610e6c90612486565b60405180910390fd5b6000610e80836106cf565b90508073ffffffffffffffffffffffffffffffffffffffff168473ffffffffffffffffffffffffffffffffffffffff161480610eef57508373ffffffffffffffffffffffffffffffffffffffff16610ed78461047b565b73ffffffffffffffffffffffffffffffffffffffff16145b80610f005750610eff8185610c00565b5b91505092915050565b8273ffffffffffffffffffffffffffffffffffffffff16610f29826106cf565b73ffffffffffffffffffffffffffffffffffffffff1614610f7f576040517f08c379a0000000000000000000000000000000000000000000000000000000008152600401610f7690612586565b60405180910390fd5b600073ffffffffffffffffffffffffffffffffffffffff168273ffffffffffffffffffffffffffffffffffffffff161415610fef576040517f08c379a0000000000000000000000000000000000000000000000000000000008152600401610fe690612446565b60405180910390fd5b610ffa8383836114e5565b611005600082610d72565b6001600360008573ffffffffffffffffffffffffffffffffffffffff1673ffffffffffffffffffffffffffffffffffffffff1681526020019081526020016000206000828254611055919061277c565b925050819055506001600360008473ffffffffffffffffffffffffffffffffffffffff1673ffffffffffffffffffffffffffffffffffffffff16815260200190815260200160002060008282546110ac91906126f5565b92505081905550816002600083815260200190815260200160002060006101000a81548173ffffffffffffffffffffffffffffffffffffffff021916908373ffffffffffffffffffffffffffffffffffffffff160217905550808273ffffffffffffffffffffffffffffffffffffffff168473ffffffffffffffffffffffffffffffffffffffff167fddf252ad1be2c89b69c2b068fc378daa952ba7f163c4a11628f55a4df523b3ef60405160405180910390a4505050565b6001816000016000828254019250508190555050565b600081600001549050919050565b600073ffffffffffffffffffffffffffffffffffffffff168273ffffffffffffffffffffffffffffffffffffffff1614156111f9576040517f08c379a00000000000000000000000000000000000000000000000000000000081526004016111f090612526565b60405180910390fd5b61120281610cfe565b15611242576040517f08c379a000000000000000000000000000000000000000000000000000000000815260040161123990612426565b60405180910390fd5b61124e600083836114e5565b6001600360008473ffffffffffffffffffffffffffffffffffffffff1673ffffffffffffffffffffffffffffffffffffffff168152602001908152602001600020600082825461129e91906126f5565b92505081905550816002600083815260200190815260200160002060006101000a81548173ffffffffffffffffffffffffffffffffffffffff021916908373ffffffffffffffffffffffffffffffffffffffff160217905550808273ffffffffffffffffffffffffffffffffffffffff16600073ffffffffffffffffffffffffffffffffffffffff167fddf252ad1be2c89b69c2b068fc378daa952ba7f163c4a11628f55a4df523b3ef60405160405180910390a45050565b61136082610cfe565b61139f576040517f08c379a000000000000000000000000000000000000000000000000000000000815260040161139690612506565b60405180910390fd5b806006600084815260200190815260200160002090805190602001906113c6929190611841565b505050565b6113d6848484610f09565b6113e2848484846114ea565b611421576040517f08c379a000000000000000000000000000000000000000000000000000000000815260040161141890612406565b60405180910390fd5b50505050565b606060405180602001604052806000815250905090565b606061144982610cfe565b611488576040517f08c379a000000000000000000000000000000000000000000000000000000000815260040161147f906125a6565b60405180910390fd5b6000611492611427565b905060008151116114b257604051806020016040528060008152506114dd565b806114bc84611681565b6040516020016114cd92919061233e565b6040516020818303038152906040525b915050919050565b505050565b600061150b8473ffffffffffffffffffffffffffffffffffffffff1661182e565b15611674578373ffffffffffffffffffffffffffffffffffffffff1663150b7a02611534610d6a565b8786866040518563ffffffff1660e01b8152600401611556949392919061237d565b602060405180830381600087803b15801561157057600080fd5b505af19250505080156115a157506040513d601f19601f8201168201806040525081019061159e9190611bed565b60015b611624573d80600081146115d1576040519150601f19603f3d011682016040523d82523d6000602084013e6115d6565b606091505b5060008151141561161c576040517f08c379a000000000000000000000000000000000000000000000000000000000815260040161161390612406565b60405180910390fd5b805181602001fd5b63150b7a0260e01b7bffffffffffffffffffffffffffffffffffffffffffffffffffffffff1916817bffffffffffffffffffffffffffffffffffffffffffffffffffffffff191614915050611679565b600190505b949350505050565b606060008214156116c9576040518060400160405280600181526020017f30000000000000000000000000000000000000000000000000000000000000008152509050611829565b600082905060005b600082146116fb5780806116e490612898565b915050600a826116f4919061274b565b91506116d1565b60008167ffffffffffffffff81111561173d577f4e487b7100000000000000000000000000000000000000000000000000000000600052604160045260246000fd5b6040519080825280601f01601f19166020018201604052801561176f5781602001600182028036833780820191505090505b5090505b6000851461182257600182611788919061277c565b9150600a8561179791906128e1565b60306117a391906126f5565b60f81b8183815181106117df577f4e487b7100000000000000000000000000000000000000000000000000000000600052603260045260246000fd5b60200101907effffffffffffffffffffffffffffffffffffffffffffffffffffffffffffff1916908160001a905350600a8561181b919061274b565b9450611773565b8093505050505b919050565b600080823b905060008111915050919050565b82805461184d90612866565b90600052602060002090601f01602090048101928261186f57600085556118b6565b82601f1061188857805160ff19168380011785556118b6565b828001600101855582156118b6579182015b828111156118b557825182559160200191906001019061189a565b5b5090506118c391906118c7565b5090565b5b808211156118e05760008160009055506001016118c8565b5090565b60006118f76118f284612652565b612621565b90508281526020810184848401111561190f57600080fd5b61191a848285612824565b509392505050565b600061193561193084612682565b612621565b90508281526020810184848401111561194d57600080fd5b611958848285612824565b509392505050565b60008135905061196f816129df565b92915050565b600081359050611984816129f6565b92915050565b60008135905061199981612a0d565b92915050565b6000815190506119ae81612a0d565b92915050565b600082601f8301126119c557600080fd5b81356119d58482602086016118e4565b91505092915050565b600082601f8301126119ef57600080fd5b81356119ff848260208601611922565b91505092915050565b600081359050611a1781612a24565b92915050565b600060208284031215611a2f57600080fd5b6000611a3d84828501611960565b91505092915050565b60008060408385031215611a5957600080fd5b6000611a6785828601611960565b9250506020611a7885828601611960565b9150509250929050565b600080600060608486031215611a9757600080fd5b6000611aa586828701611960565b9350506020611ab686828701611960565b9250506040611ac786828701611a08565b9150509250925092565b60008060008060808587031215611ae757600080fd5b6000611af587828801611960565b9450506020611b0687828801611960565b9350506040611b1787828801611a08565b925050606085013567ffffffffffffffff811115611b3457600080fd5b611b40878288016119b4565b91505092959194509250565b60008060408385031215611b5f57600080fd5b6000611b6d85828601611960565b9250506020611b7e85828601611975565b9150509250929050565b60008060408385031215611b9b57600080fd5b6000611ba985828601611960565b9250506020611bba85828601611a08565b9150509250929050565b600060208284031215611bd657600080fd5b6000611be48482850161198a565b91505092915050565b600060208284031215611bff57600080fd5b6000611c0d8482850161199f565b91505092915050565b600060208284031215611c2857600080fd5b600082013567ffffffffffffffff811115611c4257600080fd5b611c4e848285016119de565b91505092915050565b600060208284031215611c6957600080fd5b6000611c7784828501611a08565b91505092915050565b611c89816127b0565b82525050565b611c98816127c2565b82525050565b6000611ca9826126b2565b611cb381856126c8565b9350611cc3818560208601612833565b611ccc816129ce565b840191505092915050565b6000611ce2826126bd565b611cec81856126d9565b9350611cfc818560208601612833565b611d05816129ce565b840191505092915050565b6000611d1b826126bd565b611d2581856126ea565b9350611d35818560208601612833565b80840191505092915050565b6000611d4e6032836126d9565b91507f4552433732313a207472616e7366657220746f206e6f6e20455243373231526560008301527f63656976657220696d706c656d656e74657200000000000000000000000000006020830152604082019050919050565b6000611db4601c836126d9565b91507f4552433732313a20746f6b656e20616c7265616479206d696e746564000000006000830152602082019050919050565b6000611df46024836126d9565b91507f4552433732313a207472616e7366657220746f20746865207a65726f2061646460008301527f72657373000000000000000000000000000000000000000000000000000000006020830152604082019050919050565b6000611e5a6019836126d9565b91507f4552433732313a20617070726f766520746f2063616c6c6572000000000000006000830152602082019050919050565b6000611e9a602c836126d9565b91507f4552433732313a206f70657261746f7220717565727920666f72206e6f6e657860008301527f697374656e7420746f6b656e00000000000000000000000000000000000000006020830152604082019050919050565b6000611f006038836126d9565b91507f4552433732313a20617070726f76652063616c6c6572206973206e6f74206f7760008301527f6e6572206e6f7220617070726f76656420666f7220616c6c00000000000000006020830152604082019050919050565b6000611f66602a836126d9565b91507f4552433732313a2062616c616e636520717565727920666f7220746865207a6560008301527f726f2061646472657373000000000000000000000000000000000000000000006020830152604082019050919050565b6000611fcc6029836126d9565b91507f4552433732313a206f776e657220717565727920666f72206e6f6e657869737460008301527f656e7420746f6b656e00000000000000000000000000000000000000000000006020830152604082019050919050565b6000612032602e836126d9565b91507f45524337323155524953746f726167653a2055524920736574206f66206e6f6e60008301527f6578697374656e7420746f6b656e0000000000000000000000000000000000006020830152604082019050919050565b60006120986020836126d9565b91507f4552433732313a206d696e7420746f20746865207a65726f20616464726573736000830152602082019050919050565b60006120d86031836126d9565b91507f45524337323155524953746f726167653a2055524920717565727920666f722060008301527f6e6f6e6578697374656e7420746f6b656e0000000000000000000000000000006020830152604082019050919050565b600061213e602c836126d9565b91507f4552433732313a20617070726f76656420717565727920666f72206e6f6e657860008301527f697374656e7420746f6b656e00000000000000000000000000000000000000006020830152604082019050919050565b60006121a46029836126d9565b91507f4552433732313a207472616e73666572206f6620746f6b656e2074686174206960008301527f73206e6f74206f776e00000000000000000000000000000000000000000000006020830152604082019050919050565b600061220a602f836126d9565b91507f4552433732314d657461646174613a2055524920717565727920666f72206e6f60008301527f6e6578697374656e7420746f6b656e00000000000000000000000000000000006020830152604082019050919050565b60006122706021836126d9565b91507f4552433732313a20617070726f76616c20746f2063757272656e74206f776e6560008301527f72000000000000000000000000000000000000000000000000000000000000006020830152604082019050919050565b60006122d66031836126d9565b91507f4552433732313a207472616e736665722063616c6c6572206973206e6f74206f60008301527f776e6572206e6f7220617070726f7665640000000000000000000000000000006020830152604082019050919050565b6123388161281a565b82525050565b600061234a8285611d10565b91506123568284611d10565b91508190509392505050565b60006020820190506123776000830184611c80565b92915050565b60006080820190506123926000830187611c80565b61239f6020830186611c80565b6123ac604083018561232f565b81810360608301526123be8184611c9e565b905095945050505050565b60006020820190506123de6000830184611c8f565b92915050565b600060208201905081810360008301526123fe8184611cd7565b905092915050565b6000602082019050818103600083015261241f81611d41565b9050919050565b6000602082019050818103600083015261243f81611da7565b9050919050565b6000602082019050818103600083015261245f81611de7565b9050919050565b6000602082019050818103600083015261247f81611e4d565b9050919050565b6000602082019050818103600083015261249f81611e8d565b9050919050565b600060208201905081810360008301526124bf81611ef3565b9050919050565b600060208201905081810360008301526124df81611f59565b9050919050565b600060208201905081810360008301526124ff81611fbf565b9050919050565b6000602082019050818103600083015261251f81612025565b9050919050565b6000602082019050818103600083015261253f8161208b565b9050919050565b6000602082019050818103600083015261255f816120cb565b9050919050565b6000602082019050818103600083015261257f81612131565b9050919050565b6000602082019050818103600083015261259f81612197565b9050919050565b600060208201905081810360008301526125bf816121fd565b9050919050565b600060208201905081810360008301526125df81612263565b9050919050565b600060208201905081810360008301526125ff816122c9565b9050919050565b600060208201905061261b600083018461232f565b92915050565b6000604051905081810181811067ffffffffffffffff821117156126485761264761299f565b5b8060405250919050565b600067ffffffffffffffff82111561266d5761266c61299f565b5b601f19601f8301169050602081019050919050565b600067ffffffffffffffff82111561269d5761269c61299f565b5b601f19601f8301169050602081019050919050565b600081519050919050565b600081519050919050565b600082825260208201905092915050565b600082825260208201905092915050565b600081905092915050565b60006127008261281a565b915061270b8361281a565b9250827fffffffffffffffffffffffffffffffffffffffffffffffffffffffffffffffff038211156127405761273f612912565b5b828201905092915050565b60006127568261281a565b91506127618361281a565b92508261277157612770612941565b5b828204905092915050565b60006127878261281a565b91506127928361281a565b9250828210156127a5576127a4612912565b5b828203905092915050565b60006127bb826127fa565b9050919050565b60008115159050919050565b60007fffffffff0000000000000000000000000000000000000000000000000000000082169050919050565b600073ffffffffffffffffffffffffffffffffffffffff82169050919050565b6000819050919050565b82818337600083830152505050565b60005b83811015612851578082015181840152602081019050612836565b83811115612860576000848401525b50505050565b6000600282049050600182168061287e57607f821691505b6020821081141561289257612891612970565b5b50919050565b60006128a38261281a565b91507fffffffffffffffffffffffffffffffffffffffffffffffffffffffffffffffff8214156128d6576128d5612912565b5b600182019050919050565b60006128ec8261281a565b91506128f78361281a565b92508261290757612906612941565b5b828206905092915050565b7f4e487b7100000000000000000000000000000000000000000000000000000000600052601160045260246000fd5b7f4e487b7100000000000000000000000000000000000000000000000000000000600052601260045260246000fd5b7f4e487b7100000000000000000000000000000000000000000000000000000000600052602260045260246000fd5b7f4e487b7100000000000000000000000000000000000000000000000000000000600052604160045260246000fd5b6000601f19601f8301169050919050565b6129e8816127b0565b81146129f357600080fd5b50565b6129ff816127c2565b8114612a0a57600080fd5b50565b612a16816127ce565b8114612a2157600080fd5b50565b612a2d8161281a565b8114612a3857600080fd5b5056fea26469706673582212201b8bf3ba57d99fee602b5b37bbc5e74cac4e89c31875e07691f23e941abf1ef464736f6c63430008000033",
  "linkReferences": {},
  "deployedLinkReferences": {}
}